{
  "_format": "hh-sol-artifact-1",
  "contractName": "FundMe",
  "sourceName": "contracts/FundMe.sol",
  "abi": [
    {
      "inputs": [
        {
          "internalType": "address",
          "name": "priceFeedAddress",
          "type": "address"
        }
      ],
      "stateMutability": "nonpayable",
      "type": "constructor"
    },
    {
      "inputs": [],
      "name": "FundMe__InsufficienETH",
      "type": "error"
    },
    {
      "inputs": [],
      "name": "FundMe__NotOwner",
      "type": "error"
    },
    {
      "stateMutability": "payable",
      "type": "fallback"
    },
    {
      "inputs": [],
      "name": "MINIMUM_USD",
      "outputs": [
        {
          "internalType": "uint256",
          "name": "",
          "type": "uint256"
        }
      ],
      "stateMutability": "view",
      "type": "function"
    },
    {
      "inputs": [],
      "name": "OWNER",
      "outputs": [
        {
          "internalType": "address",
          "name": "",
          "type": "address"
        }
      ],
      "stateMutability": "view",
      "type": "function"
    },
    {
      "inputs": [
        {
          "internalType": "address",
          "name": "",
          "type": "address"
        }
      ],
      "name": "addressToAmountSent",
      "outputs": [
        {
          "internalType": "uint256",
          "name": "",
          "type": "uint256"
        }
      ],
      "stateMutability": "view",
      "type": "function"
    },
    {
      "inputs": [],
      "name": "fund",
      "outputs": [],
      "stateMutability": "payable",
      "type": "function"
    },
    {
      "inputs": [
        {
          "internalType": "uint256",
          "name": "",
          "type": "uint256"
        }
      ],
      "name": "funders",
      "outputs": [
        {
          "internalType": "address",
          "name": "",
          "type": "address"
        }
      ],
      "stateMutability": "view",
      "type": "function"
    },
    {
      "inputs": [],
      "name": "priceFeed",
      "outputs": [
        {
          "internalType": "contract AggregatorV3Interface",
          "name": "",
          "type": "address"
        }
      ],
      "stateMutability": "view",
      "type": "function"
    },
    {
      "inputs": [],
      "name": "withdraw",
      "outputs": [],
      "stateMutability": "nonpayable",
      "type": "function"
    },
    {
      "stateMutability": "payable",
      "type": "receive"
    }
  ],
  "bytecode": "0x60a060405234801561001057600080fd5b50604051610b26380380610b2683398181016040528101906100329190610110565b3373ffffffffffffffffffffffffffffffffffffffff1660808173ffffffffffffffffffffffffffffffffffffffff168152505080600260006101000a81548173ffffffffffffffffffffffffffffffffffffffff021916908373ffffffffffffffffffffffffffffffffffffffff1602179055505061013d565b600080fd5b600073ffffffffffffffffffffffffffffffffffffffff82169050919050565b60006100dd826100b2565b9050919050565b6100ed816100d2565b81146100f857600080fd5b50565b60008151905061010a816100e4565b92915050565b600060208284031215610126576101256100ad565b5b6000610134848285016100fb565b91505092915050565b6080516109c0610166600039600081816102dd01528181610301015261038601526109c06000f3fe6080604052600436106100745760003560e01c8063741bef1a1161004e578063741bef1a146100fa5780637cbb64e114610125578063b60d428814610162578063dc0d3dff1461016c57610083565b8063117803e31461008d5780633ccfd60b146100b85780636b69a592146100cf57610083565b36610083576100816101a9565b005b61008b6101a9565b005b34801561009957600080fd5b506100a26102db565b6040516100af9190610585565b60405180910390f35b3480156100c457600080fd5b506100cd6102ff565b005b3480156100db57600080fd5b506100e46103ed565b6040516100f191906105b9565b60405180910390f35b34801561010657600080fd5b5061010f6103fa565b60405161011c9190610633565b60405180910390f35b34801561013157600080fd5b5061014c6004803603810190610147919061067f565b610420565b60405161015991906105b9565b60405180910390f35b61016a6101a9565b005b34801561017857600080fd5b50610193600480360381019061018e91906106d8565b610438565b6040516101a09190610585565b60405180910390f35b6802b5e3af16b18800006101e8600260009054906101000a900473ffffffffffffffffffffffffffffffffffffffff163461047790919063ffffffff16565b1015610220576040517ff22826de00000000000000000000000000000000000000000000000000000000815260040160405180910390fd5b6000339080600181540180825580915050600190039060005260206000200160009091909190916101000a81548173ffffffffffffffffffffffffffffffffffffffff021916908373ffffffffffffffffffffffffffffffffffffffff16021790555034600160003373ffffffffffffffffffffffffffffffffffffffff1673ffffffffffffffffffffffffffffffffffffffff16815260200190815260200160002060008282546102d29190610734565b92505081905550565b7f000000000000000000000000000000000000000000000000000000000000000081565b7f000000000000000000000000000000000000000000000000000000000000000073ffffffffffffffffffffffffffffffffffffffff163373ffffffffffffffffffffffffffffffffffffffff1614610384576040517f579610db00000000000000000000000000000000000000000000000000000000815260040160405180910390fd5b7f000000000000000000000000000000000000000000000000000000000000000073ffffffffffffffffffffffffffffffffffffffff166108fc479081150290604051600060405180830381858888f193505050501580156103ea573d6000803e3d6000fd5b50565b6802b5e3af16b188000081565b600260009054906101000a900473ffffffffffffffffffffffffffffffffffffffff1681565b60016020528060005260406000206000915090505481565b6000818154811061044857600080fd5b906000526020600020016000915054906101000a900473ffffffffffffffffffffffffffffffffffffffff1681565b600080610483836104b3565b90506000670de0b6b3a7640000858361049c9190610768565b6104a691906107d9565b9050809250505092915050565b6000808273ffffffffffffffffffffffffffffffffffffffff1663feaf968c6040518163ffffffff1660e01b815260040160a060405180830381865afa158015610501573d6000803e3d6000fd5b505050506040513d601f19601f820116820180604052508101906105259190610897565b5050509150506402540be4008161053c9190610912565b915050919050565b600073ffffffffffffffffffffffffffffffffffffffff82169050919050565b600061056f82610544565b9050919050565b61057f81610564565b82525050565b600060208201905061059a6000830184610576565b92915050565b6000819050919050565b6105b3816105a0565b82525050565b60006020820190506105ce60008301846105aa565b92915050565b6000819050919050565b60006105f96105f46105ef84610544565b6105d4565b610544565b9050919050565b600061060b826105de565b9050919050565b600061061d82610600565b9050919050565b61062d81610612565b82525050565b60006020820190506106486000830184610624565b92915050565b600080fd5b61065c81610564565b811461066757600080fd5b50565b60008135905061067981610653565b92915050565b6000602082840312156106955761069461064e565b5b60006106a38482850161066a565b91505092915050565b6106b5816105a0565b81146106c057600080fd5b50565b6000813590506106d2816106ac565b92915050565b6000602082840312156106ee576106ed61064e565b5b60006106fc848285016106c3565b91505092915050565b7f4e487b7100000000000000000000000000000000000000000000000000000000600052601160045260246000fd5b600061073f826105a0565b915061074a836105a0565b925082820190508082111561076257610761610705565b5b92915050565b6000610773826105a0565b915061077e836105a0565b925082820261078c816105a0565b915082820484148315176107a3576107a2610705565b5b5092915050565b7f4e487b7100000000000000000000000000000000000000000000000000000000600052601260045260246000fd5b60006107e4826105a0565b91506107ef836105a0565b9250826107ff576107fe6107aa565b5b828204905092915050565b600069ffffffffffffffffffff82169050919050565b6108298161080a565b811461083457600080fd5b50565b60008151905061084681610820565b92915050565b6000819050919050565b61085f8161084c565b811461086a57600080fd5b50565b60008151905061087c81610856565b92915050565b600081519050610891816106ac565b92915050565b600080600080600060a086880312156108b3576108b261064e565b5b60006108c188828901610837565b95505060206108d28882890161086d565b94505060406108e388828901610882565b93505060606108f488828901610882565b925050608061090588828901610837565b9150509295509295909350565b600061091d8261084c565b91506109288361084c565b92508282026109368161084c565b91507f8000000000000000000000000000000000000000000000000000000000000000841460008412161561096e5761096d610705565b5b828205841483151761098357610982610705565b5b509291505056fea2646970667358221220b08c0c0d1ecfbae7785aec423cc2a277537de7551c835c9c843c3a2615c495e964736f6c634300081c0033",
  "linkReferences": {},
  "deployedLinkReferences": {}
}