{
  "_format": "hh-sol-artifact-1",
  "contractName": "FundMe",
  "sourceName": "contracts/FundMe.sol",
  "abi": [
    {
      "inputs": [],
      "stateMutability": "nonpayable",
      "type": "constructor"
    },
    {
      "stateMutability": "payable",
      "type": "fallback"
    },
    {
      "inputs": [],
      "name": "MINIMUM_USD",
      "outputs": [
        {
          "internalType": "uint256",
          "name": "",
          "type": "uint256"
        }
      ],
      "stateMutability": "view",
      "type": "function"
    },
    {
      "inputs": [
        {
          "internalType": "address",
          "name": "",
          "type": "address"
        }
      ],
      "name": "addressToAmountSent",
      "outputs": [
        {
          "internalType": "uint256",
          "name": "",
          "type": "uint256"
        }
      ],
      "stateMutability": "view",
      "type": "function"
    },
    {
      "inputs": [],
      "name": "fund",
      "outputs": [],
      "stateMutability": "payable",
      "type": "function"
    },
    {
      "inputs": [
        {
          "internalType": "uint256",
          "name": "",
          "type": "uint256"
        }
      ],
      "name": "funders",
      "outputs": [
        {
          "internalType": "address",
          "name": "",
          "type": "address"
        }
      ],
      "stateMutability": "view",
      "type": "function"
    },
    {
      "inputs": [],
      "name": "i_owner",
      "outputs": [
        {
          "internalType": "address",
          "name": "",
          "type": "address"
        }
      ],
      "stateMutability": "view",
      "type": "function"
    },
    {
      "inputs": [],
      "name": "withdraw",
      "outputs": [],
      "stateMutability": "nonpayable",
      "type": "function"
    },
    {
      "stateMutability": "payable",
      "type": "receive"
    }
  ],
  "bytecode": "0x60a0604052348015600f57600080fd5b503373ffffffffffffffffffffffffffffffffffffffff1660808173ffffffffffffffffffffffffffffffffffffffff168152505060805161099f61006d60003960008181610262015281816102f0015261037e015261099f6000f3fe6080604052600436106100595760003560e01c80633ccfd60b146100725780636b69a592146100895780637cbb64e1146100b4578063b60d4288146100f1578063dba6335f146100fb578063dc0d3dff1461012657610068565b3661006857610066610163565b005b610070610163565b005b34801561007e57600080fd5b50610087610260565b005b34801561009557600080fd5b5061009e610357565b6040516100ab91906104db565b60405180910390f35b3480156100c057600080fd5b506100db60048036038101906100d69190610559565b610364565b6040516100e891906104db565b60405180910390f35b6100f9610163565b005b34801561010757600080fd5b5061011061037c565b60405161011d9190610595565b60405180910390f35b34801561013257600080fd5b5061014d600480360381019061014891906105dc565b6103a0565b60405161015a9190610595565b60405180910390f35b6802b5e3af16b1880000610176346103df565b10156101b7576040517f08c379a00000000000000000000000000000000000000000000000000000000081526004016101ae90610666565b60405180910390fd5b6000339080600181540180825580915050600190039060005260206000200160009091909190916101000a81548173ffffffffffffffffffffffffffffffffffffffff021916908373ffffffffffffffffffffffffffffffffffffffff16021790555034600160003373ffffffffffffffffffffffffffffffffffffffff1673ffffffffffffffffffffffffffffffffffffffff16815260200190815260200160002081905550565b7f000000000000000000000000000000000000000000000000000000000000000073ffffffffffffffffffffffffffffffffffffffff163373ffffffffffffffffffffffffffffffffffffffff16146102ee576040517f08c379a00000000000000000000000000000000000000000000000000000000081526004016102e5906106f8565b60405180910390fd5b7f000000000000000000000000000000000000000000000000000000000000000073ffffffffffffffffffffffffffffffffffffffff166108fc479081150290604051600060405180830381858888f19350505050158015610354573d6000803e3d6000fd5b50565b6802b5e3af16b188000081565b60016020528060005260406000206000915090505481565b7f000000000000000000000000000000000000000000000000000000000000000081565b600081815481106103b057600080fd5b906000526020600020016000915054906101000a900473ffffffffffffffffffffffffffffffffffffffff1681565b6000806103ea610419565b90506000670de0b6b3a764000084836104039190610747565b61040d91906107b8565b90508092505050919050565b60008073694aa1769357215de4fac081bf1f309adc325306905060008173ffffffffffffffffffffffffffffffffffffffff1663feaf968c6040518163ffffffff1660e01b815260040160a060405180830381865afa158015610480573d6000803e3d6000fd5b505050506040513d601f19601f820116820180604052508101906104a49190610876565b5050509150506402540be400816104bb91906108f1565b9250505090565b6000819050919050565b6104d5816104c2565b82525050565b60006020820190506104f060008301846104cc565b92915050565b600080fd5b600073ffffffffffffffffffffffffffffffffffffffff82169050919050565b6000610526826104fb565b9050919050565b6105368161051b565b811461054157600080fd5b50565b6000813590506105538161052d565b92915050565b60006020828403121561056f5761056e6104f6565b5b600061057d84828501610544565b91505092915050565b61058f8161051b565b82525050565b60006020820190506105aa6000830184610586565b92915050565b6105b9816104c2565b81146105c457600080fd5b50565b6000813590506105d6816105b0565b92915050565b6000602082840312156105f2576105f16104f6565b5b6000610600848285016105c7565b91505092915050565b600082825260208201905092915050565b7f4e6f7420656e6f7567682066756e647300000000000000000000000000000000600082015250565b6000610650601083610609565b915061065b8261061a565b602082019050919050565b6000602082019050818103600083015261067f81610643565b9050919050565b7f4b70656c652120596f7520617265206e6f7420616c6c6f77656420746f20776960008201527f74686472617720776861742773206e6f7420796f757273000000000000000000602082015250565b60006106e2603783610609565b91506106ed82610686565b604082019050919050565b60006020820190508181036000830152610711816106d5565b9050919050565b7f4e487b7100000000000000000000000000000000000000000000000000000000600052601160045260246000fd5b6000610752826104c2565b915061075d836104c2565b925082820261076b816104c2565b9150828204841483151761078257610781610718565b5b5092915050565b7f4e487b7100000000000000000000000000000000000000000000000000000000600052601260045260246000fd5b60006107c3826104c2565b91506107ce836104c2565b9250826107de576107dd610789565b5b828204905092915050565b600069ffffffffffffffffffff82169050919050565b610808816107e9565b811461081357600080fd5b50565b600081519050610825816107ff565b92915050565b6000819050919050565b61083e8161082b565b811461084957600080fd5b50565b60008151905061085b81610835565b92915050565b600081519050610870816105b0565b92915050565b600080600080600060a08688031215610892576108916104f6565b5b60006108a088828901610816565b95505060206108b18882890161084c565b94505060406108c288828901610861565b93505060606108d388828901610861565b92505060806108e488828901610816565b9150509295509295909350565b60006108fc8261082b565b91506109078361082b565b92508282026109158161082b565b91507f8000000000000000000000000000000000000000000000000000000000000000841460008412161561094d5761094c610718565b5b828205841483151761096257610961610718565b5b509291505056fea2646970667358221220a3b3aca99f442fa49ae5630111c9c1b396c186843978b1c490c52569f831f5d064736f6c634300081c0033",
  "linkReferences": {},
  "deployedLinkReferences": {}
}